:100000000C9462000C948A000C948A000C948A0070
:100010000C948A000C948A000C948A000C948A0038
:100020000C948A000C948A000C948A000C948A0028
:100030000C948A000C948A000C948A000C948A0018
:100040000C94DF040C948A000C94AD040C94870487
:100050000C948A000C948A000C948A000C948A00F8
:100060000C948A000C948A000000000024002700F1
:100070002A0000000000250028002B0000000000DE
:1000800023002600290004040404040404040202DA
:100090000202020203030303030301020408102007
:1000A0004080010204081020010204081020000012
:1000B0000008000201000003040700000000000027
:1000C0000000290511241FBECFEFD8E0DEBFCDBF51
:1000D00011E0A0E0B1E0E2E7FEE002C005900D9281
:1000E000A23BB107D9F722E0A2EBB1E001C01D921B
:1000F000A037B207E1F710E0C2E6D0E004C02197D4
:10010000FE010E943107C136D107C9F70E9472056E
:100110000C9437070C940000AF92BF92CF92DF92FD
:10012000EF92FF920F931F93CF93DF936C017B01AC
:100130008B01040F151FEB015E01AE18BF08C0173D
:10014000D10759F06991D601ED91FC910190F081B0
:10015000E02DC6010995892B79F7C501DF91CF9173
:100160001F910F91FF90EF90DF90CF90BF90AF90D5
:100170000895FC01538D448D252F30E0842F90E0AD
:10018000821B930B541710F0CF9608950197089592
:10019000FC01918D828D981761F0A28DAE0FBF2F5B
:1001A000B11D5D968C91928D9F5F9F73928F90E0B1
:1001B00008958FEF9FEF0895FC01918D828D981720
:1001C00031F0828DE80FF11D858D90E008958FEF5D
:1001D0009FEF0895FC01918D228D892F90E0805C26
:1001E0009F4F821B91098F73992708958BEB91E0A4
:1001F0000E94EA0021E0892B09F420E0822F089573
:1002000080E090E0892B29F00E94F60081110C9487
:1002100000000895FC01A48DA80FB92FB11DA35AA9
:10022000BF4F2C91848D90E001968F739927848F16
:10023000A689B7892C93A089B1898C918370806439
:100240008C93938D848D981306C00288F389E02DDA
:1002500080818F7D80830895EF92FF920F931F938B
:10026000CF93DF93EC0181E0888F9B8D8C8D981369
:100270001AC0E889F989808185FF15C09FB7F89475
:10028000EE89FF896083E889F989808183708064C1
:1002900080839FBF81E090E0DF91CF911F910F910C
:1002A000FF90EF900895F62E0B8D10E00F5F1F4F1B
:1002B0000F731127E02E8C8D8E110CC00FB607FC2A
:1002C000FACFE889F989808185FFF5CFCE010E94B8
:1002D0000A01F1CFEB8DEC0FFD2FF11DE35AFF4F1B
:1002E000F0829FB7F8940B8FEA89FB898081806246
:1002F000CFCFCF93DF93EC01888D8823B9F0AA8903
:10030000BB89E889F9898C9185FD03C0808186FDD0
:100310000DC00FB607FCF7CF8C9185FFF2CF80811F
:1003200085FFEDCFCE010E940A01E9CFDF91CF9189
:100330000895833081F028F4813099F08230A9F05B
:1003400008958730A9F08830C9F08430B1F48091E5
:1003500080008F7D03C0809180008F778093800024
:10036000089584B58F7784BD089584B58F7DFBCFC4
:100370008091B0008F778093B00008958091B00095
:100380008F7DF9CF1F93CF93DF93282F30E0F901B2
:10039000E255FF4F8491F901E656FF4FD491F901E0
:1003A000EA57FF4FC491CC23A9F0162F81110E9468
:1003B0009901EC2FF0E0EE0FFF1FEE58FF4FA591D3
:1003C000B4918FB7F894EC91111108C0D095DE2349
:1003D000DC938FBFDF91CF911F910895DE2BF8CF73
:1003E000CF93DF9390E0FC01E656FF4F24918A57AC
:1003F0009F4FFC0184918823D1F090E0880F991FD2
:10040000FC01E859FF4FA591B491FC01EE58FF4F54
:10041000C591D491623071F49FB7F8943C91822FCA
:10042000809583238C93E8812E2B28839FBFDF91B7
:10043000CF9108958FB7F894EC912E2B2C938FBF0A
:10044000F6CF8E50806480937C0080917A00806427
:1004500080937A0080917A0086FDFCCF80917800AD
:100460009091790008953FB7F8948091B7019091E9
:10047000B801A091B901B091BA0126B5A89B05C0F9
:100480002F3F19F00196A11DB11D3FBFBA2FA92F13
:10049000982F8827BC01CD01620F711D811D911D10
:1004A00042E0660F771F881F991F4A95D1F708957C
:1004B0008F929F92AF92BF92CF92DF92EF92FF9274
:1004C0000E9433024B015C0184EFC82EDD24D394DB
:1004D000E12CF12C0E943302681979098A099B09E1
:1004E000683E734081059105A8F321E0C21AD10846
:1004F000E108F10888EE880E83E0981EA11CB11C6B
:10050000C114D104E104F10429F7FF90EF90DF90CA
:10051000CF90BF90AF909F908F900895089590E0F6
:1005200080E00895CF93DF93EC0160E08E810E941C
:10053000C20161E08E810E94C20160E08E810E9452
:10054000C2018BE891E00197F1F7DF91CF91089517
:10055000CF92DF92EF92FF920F931F93CF93DF938F
:100560006C017C0187E0E80EF11CD0E0C0E0062FB2
:1005700010E0B8010C2E02C0759567950A94E2F759
:100580006170F70181917F010E94C2012196C43000
:10059000D10579F7C601DF91CF911F910F91FF909F
:1005A000EF90DF90CF900C949202CF92DF92EF9277
:1005B000FF920F931F93CF93DF93EC01F62E642FDE
:1005C0008C810E94C2018D818F3F19F060E00E94F2
:1005D000C2010F2D10E08F8584FF25C06E0187E0DA
:1005E000C80ED11CF12CE12CB8010E2C02C075955F
:1005F00067950A94E2F76170F60181916F010E949C
:10060000C201FFEFEF1AFF0A88E0E816F10461F774
:10061000CE01DF91CF911F910F91FF90EF90DF906E
:10062000CF900C949202B80184E0759567958A95F5
:10063000E1F7CE010E94A8026F2DCE01DF91CF918C
:100640001F910F91FF90EF90DF90CF900C94A80234
:1006500040E0682F88E592E00C94D50281E00E948A
:1006600028038BE39FE10197F1F70895CF93DF9380
:10067000813029F09091670298609093670280938F
:100680006B0210926C0280E480936D0280E1809393
:100690006E0280E580936F0261E080915C020E94AF
:1006A000F00180915D028F3F19F061E00E94F0013E
:1006B00061E080915E020E94F001C8E5D2E09E01F7
:1006C000285532408091670284FD0BC084E090E0A1
:1006D00021962817390744F461E08E810E94F001C9
:1006E000EECF88E090E0F4CF8BE39DE00197F1F747
:1006F00060E080915C020E94C20160E080915E0235
:100700000E94C20180915D028F3F19F060E00E945B
:10071000C2018091670284FD34C063E088E592E005
:100720000E94A802CBE4D6E4CE010197F1F763E082
:1007300088E592E00E94A8022197F1F763E088E53E
:1007400092E00E94A80283E592E00197F1F762E04F
:1007500088E592E00E94A8028091670280620E9470
:10076000280384E0809368028CE00E9428030E94A2
:100770002E0382E08093690286E0DF91CF910C9492
:10078000280380620E9428038BE496E40197F1F726
:100790008091670280620E94280383E592E00197BE
:1007A000F1F78091670280620E942803D5CF909173
:1007B0006B02891710F08FEF890FE82FF0E0E85AED
:1007C000FD4F848980680C94280341E00E94D50283
:1007D00081E090E00895FB0101900020E9F7319756
:1007E000AF01461B570BDC01ED91FC910280F381B8
:1007F000E02D09944F925F926F927F928F929F9219
:10080000AF92BF92CF92DF92EF92FF920F931F931E
:10081000CF93DF93CDB7DEB7A1970FB6F894DEBFC5
:100820000FBECDBF8C016B01770FEE08FF08F7FEFE
:1008300049C0DC01ED91FC910190F081E02D6DE269
:1008400009955C0122273327A9012C193D094E097E
:100850005F0919A2FE01B1967F019AE0492E512C41
:10086000612C712CCA01B901A30192010E940F07EA
:10087000605DD7016E937D0121153105410551055C
:1008800089F790E080E0109721F0BD01C8010E9437
:10089000EB038A0D9B1DA1960FB6F894DEBF0FBE29
:1008A000CDBFDF91CF911F910F91FF90EF90DF901F
:1008B000CF90BF90AF909F908F907F906F905F9000
:1008C0004F900895A701960119A2FE01B1967F01EC
:1008D0008AE0882E912CA12CB12CCA01B901A50166
:1008E00094010E940F07605DD7016E937D01211571
:1008F00031054105510589F790E080E0109759F2E4
:10090000BD01C8010E94EB03C6CF0C94EB031F92FC
:100910000F920FB60F9211242F933F934F935F9333
:100920006F937F938F939F93AF93BF93EF93FF93B7
:100930008BEB91E00E940A01FF91EF91BF91AF9183
:100940009F918F917F916F915F914F913F912F91E7
:100950000F900FBE0F901F9018951F920F920FB619
:100960000F9211242F938F939F93EF93FF93E09116
:10097000CB01F091CC018081E091D101F091D201C5
:1009800082FD1BC090818091D4018F5F8F73209175
:10099000D501821741F0E091D401F0E0E554FE4F1B
:1009A000958F8093D401FF91EF919F918F912F911B
:1009B0000F900FBE0F901F9018958081F4CF1F925B
:1009C0000F920FB60F9211242F933F938F939F9303
:1009D000AF93BF938091B3019091B401A091B50101
:1009E000B091B6013091B20123E0230F2D3758F5B5
:1009F0000196A11DB11D2093B2018093B301909384
:100A0000B401A093B501B093B6018091B701909164
:100A1000B801A091B901B091BA010196A11DB11D13
:100A20008093B7019093B801A093B901B093BA0134
:100A3000BF91AF919F918F913F912F910F900FBEDA
:100A40000F901F90189526E8230F0296A11DB11D47
:100A5000D2CFEBEBF1E01382128288EE93E0A0E0BC
:100A6000B0E084839583A683B78384E091E091838B
:100A7000808385EC90E09587848784EC90E097876D
:100A8000868780EC90E0918B808B81EC90E0938B5B
:100A9000828B82EC90E0958B848B86EC90E0978B38
:100AA000868B118E128E138E148EE8E5F2E013827F
:100AB000128286E191E0918380838CE084838FEFC2
:100AC00085838BE0868384E0878383E0808782E070
:100AD000818781E08287138614861586168617869D
:100AE0000C943603789484B5826084BD84B58160AB
:100AF00084BD85B5826085BD85B5816085BD8091E9
:100B00006E00816080936E00109281008091810060
:100B10008260809381008091810081608093810058
:100B2000809180008160809380008091B10084601A
:100B30008093B1008091B00081608093B00080917B
:100B40007A00846080937A0080917A00826080933A
:100B50007A0080917A00816080937A0080917A0097
:100B6000806880937A001092C100E091CB01F091EF
:100B7000CC0182E08083E091C701F091C80110822E
:100B8000E091C901F091CA018FEC80831092D301EA
:100B9000E091CF01F091D00186E08083E091CD011A
:100BA000F091CE01808180618083E091CD01F09150
:100BB000CE01808188608083E091CD01F091CE01EB
:100BC000808180688083E091CD01F091CE018081A9
:100BD0008F7D808384E00E94360362E087E00E947C
:100BE000F00161E086E00E94F00195EB492E90E073
:100BF000592E21EA622E20E0722E3DE8A32E30E02D
:100C0000B32E40E0842E40E0942EF2018491F30153
:100C1000D491F501C491D12CC12CCC2399F0811130
:100C20000E949901EC2FF0E0EE0FFF1FE458FF4FF8
:100C3000A591B4918C91D82391E080E009F490E0E3
:100C4000C92ED82E82E10E9421027C0181E10E94FE
:100C50002102EC0180E10E9421028C01CD2809F0E3
:100C600052C061E086E00E94C2016EE171E08BEB50
:100C700091E00E948504B7018BEB91E00E94FA039A
:100C800065E871E08BEB91E00E948504BE018BEB7F
:100C900091E00E94FA0364E971E08BEB91E00E941D
:100CA0008504B8018BEB91E00E94FA0362E371E0E6
:100CB0008BEB91E00E94EB030E942E0380E00E94E8
:100CC000D70365E371E088E592E00E94850481E046
:100CD0000E94D70362E471E088E592E00E948504F7
:100CE000BE0188E592E00E94FA030E945802811436
:100CF000910409F48ACF0E94F600882309F485CF75
:100D00000E94000082CFFDE2EF16F1E0FF0664F0E2
:100D10000E942E0380E00E94D70363E571E088E51E
:100D200092E00E948504E1CFCD3281E0D80744F003
:100D30000E942E0380E00E94D70362E671E0EFCFAD
:100D40000D32E1E01E0744F00E942E0381E00E9474
:100D5000D7036EE671E0E3CF60E086E00E94C20157
:100D600068E771E08BEB91E00E948504B7018BEBA3
:100D700091E00E94FA0364E871E08BEB91E00E943D
:100D80008504BE018BEB91E00E94FA0363E971E0F8
:100D90008BEB91E00E948504B8018BEB91E00E94FF
:100DA000FA0362E371E08BEB91E00E94EB030E9497
:100DB0002E0380E00E94D70368E771E088E592E0A7
:100DC0000E948504B70188E592E00E94FA0381E061
:100DD0000E94D70360EA71E088E592E00E948504F2
:100DE000BE0188E592E00E94FA0382E00E94D703E8
:100DF00064E971E088E592E00E948504B80188E525
:100E000092E00E94FA0383E00E94D70368EA71E04F
:100E100088E592E00E9485046DEA71E080CFA1E24E
:100E20001A2EAA1BBB1BFD010DC0AA1FBB1FEE1F64
:100E3000FF1FA217B307E407F50720F0A21BB30BAF
:100E4000E40BF50B661F771F881F991F1A9469F72B
:100E500060957095809590959B01AC01BD01CF0187
:100E60000895EE0FFF1F0590F491E02D0994F8947A
:020E7000FFCFB2
:100E7200000000002C018C00B9007901EA00C800D2
:100E8200DC0000000000E5038C008F028E02706916
:100E92006C6C73206172652064656C69766572653D
:100EA20064000D0A004D6F746F72203D2052756E02
:100EB200200050494C4C532044454C49564552451C
:100EC2004420004C4F57204845415254205241542F
:100ED2004500445249505320454D50545900454D08
:100EE200455247454E435900484541525452415498
:100EF200453D2000204452495053204C4556454C14
:100F02003D20002048414E44474C4F56453D20006D
:100F120044524950533D20004F503D20004F464619
:020F22000000CD
:00000001FF
